{
  "result": {
    "hash": "005d3821c522b528f42fa16187d70ccb59170e2dcd72e9242d54d967e63b6ffe",
    "confirmations": 643039,
    "size": 2271,
    "height": 717983,
    "version": 3,
    "versionHex": "00000001",
    "merkleroot": "97c960c90e0b6bc30d2629f06d114f1c49aadb0e3d9bd70eb4f0f9ed1ea69279",
    "tx": [
      {
        "txid": "afa747bcb78e22e5550e880d0803a5fa4cdbc7e04ff303a4b14da2c36e348e88",
        "hash": "afa747bcb78e22e5550e880d0803a5fa4cdbc7e04ff303a4b14da2c36e348e88",
        "version": 1,
        "size": 187,
        "locktime": 0,
        "vin": [
          {
            "coinbase": "039ff40a0102",
            "sequence": 4294967295
          }
        ],
        "vout": [
          {
            "value": 7.5001,
            "n": 0,
            "scriptPubKey": {
              "asm": "OP_DUP OP_HASH160 557662a6b307f95aa00311c074f7feebb955d451 OP_EQUALVERIFY OP_CHECKSIG",
              "hex": "76a914557662a6b307f95aa00311c074f7feebb955d45188ac",
              "reqSigs": 1,
              "type": "pubkeyhash",
              "addresses": [
                "ztawr1vEZ6pZRtLqNy2C9u7EK7JN2gP8W6z"
              ]
            }
          },
          {
              "value": 2.5,
              "n": 1,
              "scriptPubKey": {
                "asm":  "OP_HASH160 8d3468b6686ac59caf9ad94e547a737b09fa1027 OP_EQUAL",
                "hex":  "a9148d3468b6686ac59caf9ad94e547a737b09fa102787",
                "reqSigs": 1,
                "type": "scripthash",
                "addresses": [
                  "zrFzxutppvxEdjyu4QNjogBMjtC1py9Hp1S"
                ]
            }
          },
            {
              "value": 1.25,
              "n": 2,
              "scriptPubKey": {
                "asm":  "OP_HASH160 fc1d7f04db5e2c05b051e0decc85effe6bc539d5 OP_EQUAL",
                "hex":  "a914fc1d7f04db5e2c05b051e0decc85effe6bc539d587",
                "reqSigs": 1,
                "type": "scripthash",
                "addresses": [
                  "zrS7QUB2eDbbKvyP43VJys3t7RpojW8GdxH"
                ]
            }
          },
            {
              "value": 1.25,
              "n": 3,
              "scriptPubKey": {
              "asm":  "OP_HASH160 8b85fc1e171a4c7994c088b91d5a75dff9e56cad OP_EQUAL",
              "hex":  "a9148b85fc1e171a4c7994c088b91d5a75dff9e56cad87",
              "reqSigs": 1,
              "type": "scripthash",
              "addresses": [
                "zrFr5HVm7woVq3oFzkMEdJdbfBchfPAPDsP"
              ]
            }
          }
        ],
        "hex": "01000000010000000000000000000000000000000000000000000000000000000000000000ffffffff06039ff40a0102ffffffff04903eb42c000000001976a914557662a6b307f95aa00311c074f7feebb955d45188ac80b2e60e0000000017a9148d3468b6686ac59caf9ad94e547a737b09fa102787405973070000000017a914fc1d7f04db5e2c05b051e0decc85effe6bc539d587405973070000000017a9148b85fc1e171a4c7994c088b91d5a75dff9e56cad8700000000"
      },
      {
        "txid": "67c76a34cb6bde6f9628fdc8348c23191d3222e88386ed05c97e3c63384a01af",
        "hash": "67c76a34cb6bde6f9628fdc8348c23191d3222e88386ed05c97e3c63384a01af",
        "version": 1,
        "size": 595,
        "locktime": 0,
        "vin": [
          {
            "txid": "9401f535c210f3ff362d3f51dba88ecddf4f87ed9d0563c1f9e8af75eca1fd1a",
            "vout":      0,
            "scriptSig": {
              "asm": "3044022059135f673a4919ab56775064cc82080ead1c74d8f0ebd943062b247c5946cf88022048f26c94a15752fa04d8bfff7388dd65d57485acd2395e539a50b2ca8e27870001 03ae26fe63b19c80972b6ffbd47e9f3b3e202740e5e349b0e23fd712927b0792ce",
              "hex": "473044022059135f673a4919ab56775064cc82080ead1c74d8f0ebd943062b247c5946cf88022048f26c94a15752fa04d8bfff7388dd65d57485acd2395e539a50b2ca8e278700012103ae26fe63b19c80972b6ffbd47e9f3b3e202740e5e349b0e23fd712927b0792ce"
          },
          "sequence":  4294967295
          },
          {
            "txid": "14e8fe02ec4e237d8cb6bf95943bd05706a19f6bd29f9b2b1fefc4fa09ef6737",
            "vout":      0,
            "scriptSig": {
              "asm": "30440220527c59b1d2dbb87b71e01c9d1489f110727fc3120e5306539bd4668ed1063d30022079b6ca4ff77de3ab953bb0d896b74bb60c8ceca28248340201e701da0d1fd12b01 03ae26fe63b19c80972b6ffbd47e9f3b3e202740e5e349b0e23fd712927b0792ce",
              "hex": "4730440220527c59b1d2dbb87b71e01c9d1489f110727fc3120e5306539bd4668ed1063d30022079b6ca4ff77de3ab953bb0d896b74bb60c8ceca28248340201e701da0d1fd12b012103ae26fe63b19c80972b6ffbd47e9f3b3e202740e5e349b0e23fd712927b0792ce"
          },
          "sequence":  4294967295
          },
          {
            "txid": "4c292f9ba0e94f2d48a16f8765217e62b6673796bffd92c26b13ed5e661946bc",
            "vout":      1,
            "scriptSig": {
              "asm": "304402202d3b75ed231c1fe478c471452a0385c5cdc9fe2e337d5ee62cacd8a26d013e5002207d864a38e013d8c61b1972bd7bf78a53accd9b8d600fbbd7c79c21b2171fd8cb01 03ae26fe63b19c80972b6ffbd47e9f3b3e202740e5e349b0e23fd712927b0792ce",
              "hex": "47304402202d3b75ed231c1fe478c471452a0385c5cdc9fe2e337d5ee62cacd8a26d013e5002207d864a38e013d8c61b1972bd7bf78a53accd9b8d600fbbd7c79c21b2171fd8cb012103ae26fe63b19c80972b6ffbd47e9f3b3e202740e5e349b0e23fd712927b0792ce"
          },
          "sequence":  4294967295
          }
        ],
        "vout": [
          {
            "value": 5,
            "n": 0,
            "scriptPubKey": {
              "asm": "OP_DUP OP_HASH160 b87cc09d17751ffeab924a82134665ae4202cbfc OP_EQUALVERIFY OP_CHECKSIG bd1d792d97a7da359adbc2fdadd04536f79aad9afc5821c4340043f7fb302a00 717682 OP_CHECKBLOCKATHEIGHT",
              "hex": "76a914b87cc09d17751ffeab924a82134665ae4202cbfc88ac20bd1d792d97a7da359adbc2fdadd04536f79aad9afc5821c4340043f7fb302a000372f30ab4",
              "reqSigs": 1,
              "type": "pubkeyhashreplay",
              "addresses": [
                "ztjySYJL8g9i6wc2YTusbDpPZSpPM5xuTua"
              ]
            }
          },
          {
            "value": 68.5999,
            "n": 1,
            "scriptPubKey": {
              "asm": "OP_DUP OP_HASH160 fd2831ec8fc1bf3ccdeadbe9fcdb515aac904761 OP_EQUALVERIFY OP_CHECKSIG bd1d792d97a7da359adbc2fdadd04536f79aad9afc5821c4340043f7fb302a00 717682 OP_CHECKBLOCKATHEIGHT",
              "hex": "76a914fd2831ec8fc1bf3ccdeadbe9fcdb515aac90476188ac20bd1d792d97a7da359adbc2fdadd04536f79aad9afc5821c4340043f7fb302a000372f30ab4",
              "reqSigs": 1,
              "type": "pubkeyhashreplay",
              "addresses": [
                "ztrEXsPLywPcxE3Sn9qdWV6tYkBH4HnYwin"
              ]
            }
          }
        ],
        "hex": "01000000031afda1ec75afe8f9c163059ded874fdfcd8ea8db513f2d36fff310c235f50194000000006a473044022059135f673a4919ab56775064cc82080ead1c74d8f0ebd943062b247c5946cf88022048f26c94a15752fa04d8bfff7388dd65d57485acd2395e539a50b2ca8e278700012103ae26fe63b19c80972b6ffbd47e9f3b3e202740e5e349b0e23fd712927b0792ceffffffff3767ef09fac4ef1f2b9b9fd26b9fa10657d03b9495bfb68c7d234eec02fee814000000006a4730440220527c59b1d2dbb87b71e01c9d1489f110727fc3120e5306539bd4668ed1063d30022079b6ca4ff77de3ab953bb0d896b74bb60c8ceca28248340201e701da0d1fd12b012103ae26fe63b19c80972b6ffbd47e9f3b3e202740e5e349b0e23fd712927b0792ceffffffffbc4619665eed136bc292fdbf963767b6627e2165876fa1482d4fe9a09b2f294c010000006a47304402202d3b75ed231c1fe478c471452a0385c5cdc9fe2e337d5ee62cacd8a26d013e5002207d864a38e013d8c61b1972bd7bf78a53accd9b8d600fbbd7c79c21b2171fd8cb012103ae26fe63b19c80972b6ffbd47e9f3b3e202740e5e349b0e23fd712927b0792ceffffffff020065cd1d000000003f76a914b87cc09d17751ffeab924a82134665ae4202cbfc88ac20bd1d792d97a7da359adbc2fdadd04536f79aad9afc5821c4340043f7fb302a000372f30ab4f023e398010000003f76a914fd2831ec8fc1bf3ccdeadbe9fcdb515aac90476188ac20bd1d792d97a7da359adbc2fdadd04536f79aad9afc5821c4340043f7fb302a000372f30ab400000000"
      }
    ],
    "time": 1601465727,
    "nonce": "00002e570d64b4b3ea1c30dec68b2dff255eb3148656f06f5e018ae739a400eb",
    "bits": "1f754920",
    "difficulty": 17.46160923,
    "chainwork": "000000000000000000000000000000000000000000000000000003e903e903e9",
    "nTx": 1,
    "previousblockhash": "0067f80ce10d4255932b7f8c9baf7bd0dcfd408c312d33144be0ea12caf7f7f0",
    "nextblockhash": "00000000a2887344f8db859e372e7e4bc26b23b9de340f725afbf2edb265b4c6"
  },
  "error": null,
  "id": "curltest"
}
